:100000000A128A11EB2FFF1B0D2883137F18831709
:100010000008840A0319FF0A080000308A00040857
:10002000840A8207003420342034203400345334CE
:1000300031343A340034533432343A3400345334A3
:0600400033343A340034B1
:1006EC00F0007008831203139300080083160313A1
:1006FC00141C812B822B7C2B08000A128A117C2360
:10070C000A128A11831203131308080000300A120C
:10071C008A11AF230A128A1101300A128A11AF23EF
:10072C000A128A110800F300831603138712731D33
:10073C00A02BA12BA52B720894008715A92B700850
:10074C0072049400871173087104831203139400CC
:10075C000800F30083120313081173080A128A119C
:10076C00C9230A128A118312031388150B30F20065
:10077C006230F100F10BC02BF20BC02B0000831286
:10078C00031388110800F000701CCD2BCE2BD22B3C
:10079C00831203130816D52B831203130812F01CB3
:1007AC00D82BD92BDB2B8816DC2B8812701DDF2B5A
:1007BC00E02BE22B0817E32B0813F01DE62BE72B9D
:1007CC00E92B8817EA2B88130800F40074080F39FA
:1007DC00F2007408F039F300831203130815730840
:1007EC00F10004300310F10CFF3E031DF82B7108CF
:1007FC000A128A11C9230A128A118312031388154B
:10080C001A30F100F10B082C00008312031388112D
:10081C0072080A128A11C9230A128A11831203134D
:10082C0088151A30F100F10B192C000083120313F8
:10083C0088110800FA01FB01452C7A087507F800AD
:10084C007608F7000318F70AFA1F2D2CF703770820
:10085C00F900790883120313FF00780884000A1248
:10086C008A1103200A128A110A128A11EB230A1226
:10087C008A110130FA070318FB0A0030FB077A08CB
:10088C007507F8007608F7000318F70AFA1F4F2CC3
:10089C00F7037708F900790883120313FF0078082F
:1008AC0084000A128A1103200A128A11003A031DCD
:1008BC00602C612C232C0800F6007603031D672C9A
:1008CC00682C852C74087F3EF9007908F5000430FB
:1008DC000310F50CFF3E031D6E2C7508F70079080C
:1008EC000F39F80077080A128A11AF230A128A11FD
:1008FC0078080A128A11AF230A128A11A72C023027
:10090C007606031D8A2C8B2CA72C7408BF3EF9008D
:10091C007908F50004300310F50CFF3E031D912CF3
:10092C007508F70079080F39F80077080A128A1150
:10093C00AF230A128A1178080A128A11AF230A12FD
:10094C008A110800F601F31FAC2CAD2CB42CF20963
:10095C00F309F20A0319F30AF601F60AF11FB72C90
:10096C00B82CBD2CF009F109F00A0319F10A700832
:10097C0071040319C22CC32CF22CF501F50AD12CED
:10098C0001300310F00DF10DFF3E031DC72C01309B
:10099C00F4007408F507F11FD42CD52CC62C710863
:1009AC007302031DDB2C70087202031CDE2CDF2C7F
:1009BC00E52C7008F2027108031CF303F3020130FA
:1009CC000310F10CF00CFF3E031DE62C0130F50278
:1009DC00031DF12CF22CD52C76080319F62CF72CD0
:1009EC00FC2CF209F309F20A0319F30A7308F1005B
:1009FC007208F0000800831603130F178F160F16DA
:100A0C000F1483160317880189018316031307112A
:100A1C00871086018801831203138601880107154C
:100A2C00F001F101F20120300A128A1199230A1205
:100A3C008A110A128A115D250A128A110A128A1168
:100A4C008C230A128A11F401F40A01300A128A1159
:100A5C0062240A128A110530F5008030F6000A1261
:100A6C008A1120240A128A110830F40001300A126B
:100A7C008A1162240A128A110930F5008030F600BE
:100A8C000A128A1120240A128A110E30F400013045
:100A9C000A128A1162240A128A110D30F500803074
:100AAC00F6000A128A1120240A128A11080000305A
:100ABC000A128A11C9230A128A113430F500F13056
:100ACC00F400F40B672DF50B672D6C2D03300A1217
:100ADC008A11AF230A128A110D30F500FB30F40095
:100AEC00F40B762DF50B762D7B2D03300A128A1123
:100AFC00AF230A128A111D30F5009130F400F40B6B
:100B0C00852DF50B852D03300A128A11AF230A129D
:100B1C008A1102300A128A11AF230A128A1102308A
:100B2C000A128A11AF230A128A1108300A128A118A
:100B3C00AF230A128A1100300A128A11AF230A124B
:100B4C008A110C300A128A11AF230A128A11003052
:100B5C000A128A11AF230A128A1106300A128A115C
:100B6C00AF230A128A110800F601F11FBE2DBF2D0A
:100B7C00C62DF009F109F00A0319F10AF601F60A7B
:100B8C00F31FC92DCA2DD32DF209F309F20A03194B
:100B9C00F30A0130F4007408F606F701F801700846
:100BAC0071040319DA2DDB2D122EF501F50AE92D4E
:100BBC0001300310F00DF10DFF3E031DDF2D013050
:100BCC00F4007408F507F11FEC2DED2DDE2D01302E
:100BDC000310F70DF80DFF3E031DEE2D7108730287
:100BEC00031DFA2D70087202031CFD2DFE2D052E1F
:100BFC007008F2027108031CF303F302771401303E
:100C0C000310F10CF00CFF3E031D062E0130F50213
:100C1C00031D112E122EED2D76080319162E172EEC
:100C2C001C2EF709F809F70A0319F80A7808F100DD
:100C3C007708F000080083120313AE002E08B300EF
:100C4C00B0013308031D2B2E2C2E682E790884003E
:100C5C00303083138000790A84008001A72E30087D
:100C6C007907FA007A0884000A30F0000030F100AD
:100C7C003308FB00FC017B08F2007C08F3000A122D
:100C8C008A11A8240A128A117008303E831380003E
:100C9C000130FA007A0883120313B0070A30F0000F
:100CAC000030F1003308FA00FB017A08F2007B08EF
:100CBC00F3000A128A11BA250A128A1170088312DB
:100CCC000313B3003308031D6C2E6D2E352E300824
:100CDC007907FA007A08840083138001B101300887
:100CEC00FF3EB2009D2E31087907FA007A08840085
:100CFC000008AF0032087907FA007A08840000086F
:100D0C00FB0031087907FC007C0884007B0880001C
:100D1C0032087907FA007A0884002F088000013025
:100D2C00FA007A08B107FF30FA007A08B2073108E6
:100D3C00803AFA003208803AFA02031CA62EA72E3B
:100D4C00792E08000A128A1101250A128A118312BF
:100D5C0003130711033083120313B5009730B4004B
:100D6C00B40BB62EB50BB62E01300A128A117623AF
:100D7C000A128A110A128A1183230A128A11FD009F
:100D8C00033083120313B5009730B400B40BCC2E90
:100D9C00B50BCC2E831203130715033083120313E8
:100DAC00B6008A30B5005530B400B40BDB2EB50B51
:100DBC00DB2EB60BDB2E831203138710033083124A
:100DCC000313B5009730B400B40BEA2EB50BEA2E22
:100DDC008312031306080A128A1176230A128A1147
:100DEC000A128A1183230A128A1183120313A00098
:100DFC00033083120313B5009730B400B40B042FE7
:100E0C00B50B042F831203138714033083120313BF
:100E1C00B6008A30B5005530B400B40B132FB50BA7
:100E2C00132FB60B132F83120313071103308312E6
:100E3C000313B5009730B400B40B222FB50B222F3F
:100E4C0000300A128A1176230A128A110A128A11A8
:100E5C0083230A128A1183120313A1000330831215
:100E6C000313B5009730B400B40B3A2FB50B3A2FDF
:100E7C00831203130715033083120313B6008A3051
:100E8C00B5005530B400B40B492FB50B492FB60B38
:100E9C00492F2A30F9007D080A128A1121260A12DC
:100EAC008A1164307D0203185C2F5D2F6E2FF401C4
:100EBC00F40A02300A128A1162240A128A110130D1
:100ECC00F5008030F6000A128A1120240A128A11C9
:100EDC00F401F40A02300A128A1162240A128A11ED
:100EEC002A30F5000030F6000A128A1120240A126A
:100EFC008A112630F9008312031320080A128A1172
:100F0C0021260A128A11643083120313200203185B
:100F1C00902F912FA22F0830F40002300A128A1160
:100F2C0062240A128A110130F5008030F6000A1290
:100F3C008A1120240A128A110830F40002300A1295
:100F4C008A1162240A128A112630F5000030F6004C
:100F5C000A128A1120240A128A112230F9008312F3
:100F6C00031321080A128A1121260A128A116430ED
:100F7C008312031321020318C42FC52FD62F0E3052
:100F8C00F40002300A128A1162240A128A1101300A
:100F9C00F5008030F6000A128A1120240A128A11F8
:100FAC000E30F40002300A128A1162240A128A11DD
:100FBC002230F5000030F6000A128A1120240A12A1
:100FCC008A11AD2E0A128A110028FD018312031317
:100FDC00A001A101A201A301A401A501A601A701E1
:100FEC00A801A901AA01AB01AC01AD0183010A1250
:040FFC008A11A82E80
:08400000FF3FFF3FFF3FFF3FC0
:04400E00D420FF3F7C
:00000001FF
