:060000000A128A110C280F
:10000800FE00030EF6000A08F7000A128A113228C9
:100018000A128A110F280A128A11BE210A128A119D
:10002800A9000A128A11BF210A128A11AA000A120B
:100038008A11C0210A128A11AB000A128A11C12141
:100048000A128A11AC00AD01AE01F801F901FA01FA
:10005800FB01FC0183010A128A110329831203138D
:100068008C1D3728382858280A128A11A8210A1204
:100078008A11F8007808031D422843284A287B087B
:100088000A128A11B8210A128A1155287803031D09
:100098004E284F28552879080A128A11B8210A12C1
:1000A8008A11831203138C110C1F5B285C28792892
:1000B8000A128A1191210A128A1170087104031D0B
:1000C800662867286F280A128A119E210A128A1147
:1000D8007008FB0076280A128A119E210A128A11DA
:1000E8007008FA00831203130C130B1C7C287D285C
:1000F8008D2806188028812886280130F500750883
:10010800F9078C28861889288A288C280130F90252
:100118000B1077088A00760E8300FE0E7E0E09000B
:1001280083120313A5009F189A289B28D028013012
:10013800AD070318AE0A0030AE072E08803AA200B9
:100148002108803A2202031DAB2820082D02031C37
:10015800AE28AF28B32883120313AD01AE01831272
:1001680003132D08A20022072507A30023088400F3
:1001780083130008A400A40DA40D1F082406C33986
:1001880024069F00203083120313A200A20BCA2862
:100198000000831203139F1408000330831603170B
:1001A80088008901FF300A128A1175210A128A1102
:1001B800003083120313A000A1000A128A11302113
:1001C8000A128A11831603130F178F160F160F14AE
:1001D80088018312031388018B170B178C11831660
:1001E80003138C15851683120313A001A101A20124
:1001F80024300A128A1157210A128A1108000A1299
:100208008A11D1200A128A11203083120313A60002
:10021800A60B0C290000831203139F1402308312CB
:100228000313A0000030A10029300A128A1194207B
:100238000A128A11033083120313A8008A30A70018
:100248005530A600A60B2629A70B2629A80B262978
:1002580012290A128A110C28831203131F083F3926
:1002680040389F00831603131F129F128312031333
:100278002008A200A20DA20D1F082206C3392206DB
:100288009F00831603139F130F3083120313A200DA
:10029800A20B4C294F29831203131F140C13831626
:1002A80003130C17080083120313A3008316031308
:1002B800871283120313231D6229632969292208DF
:1002C80083160313940087156F29200822048316C8
:1002D8000313940087118312031323082104940045
:1002E800080083120313A000200883160313860056
:1002F8008312031320088316031395008312031334
:1003080020088316031396008312031386018316AD
:10031800031381138B150B100800831203131F0C92
:10032800F200720C0F39F300F4017308F00074083E
:10033800F1000800831203131E08F200F30172088B
:10034800F0007308F10008000A128A11B1210A129C
:100358008A11831203131308080083160313141C4D
:10036800B629B729B1290800F000700883120313D1
:0C0378009300080000340034013400340D
:08400000FF3FFF3FFF3FFF3FC0
:04400E00D420FF3F7C
:00000001FF
