:060000000A128A110C280F
:10000800FE00030EF5000A08F6000A128A113028CD
:100018000A128A110F280A128A117D210A128A11DE
:10002800A9000A128A117E210A128A11AA000A124C
:100038008A117F210A128A11AB000A128A118021C3
:100048000A128A11AC00AD01AE01F701F801F901FD
:1000580083010A128A11AC28831203138C1D3528D8
:10006800362847280A128A1167210A128A11831230
:100078000313880078080A128A1177210A128A1154
:10008800831203138C110C1F4A284B2868280A1264
:100098008A1150210A128A1170087104031D55280B
:1000A80056285E280A128A115D210A128A117008E0
:1000B800F80065280A128A115D210A128A1170084F
:1000C800F700831203130C1376088A00750E830059
:1000D800FE0E7E0E090083120313A5009F187528D3
:1000E8007628AB280130AD070318AE0A0030AE07FA
:1000F8002E08803AA2002108803A2202031D862891
:1001080020082D02031C89288A288E2883120313AD
:10011800AD01AE01831203132D08A20022072507A3
:10012800A3002308840083130008A400A40DA40DD1
:100138001F082406C33924069F00203083120313A6
:10014800A200A20BA5280000831203139F14080025
:100158000A128A11DD200A128A1120308312031331
:10016800A600A60BB5280000831203139F140230C3
:1001780083120313A0000030A10029300A128A114B
:100188006F200A128A11013083120313860203308A
:1001980083120313A8008A30A7005530A600A60BC7
:1001A800D328A70BD328A80BD328BB280A128A1157
:1001B8000C28033083160317880089010030831246
:1001C8000313A000A1000A128A110B210A128A1136
:1001D800831603130F178F160F160F148601880145
:1001E80083120313860188018B170B178C11831652
:1001F80003138C15851683120313A001A101A20114
:1002080024300A128A1132210A128A110800831234
:1002180003131F083F3940389F00831603131F122A
:100228009F12831203132008A200A20DA20D1F081B
:100238002206C33922069F00831603139F130F302B
:1002480083120313A200A20B27292A29831203135E
:100258001F140C13831603130C17080083120313BF
:10026800A30083160313871283120313231D3D294A
:100278003E294429220883160313940087154A2926
:100288002008220483160313940087118312031392
:100298002308210494000800831203131F0CF200A2
:1002A800720C0F39F300F4017308F0007408F100C0
:1002B8000800831203131E08F200F3017208F0000D
:1002C8007308F10008000A128A1170210A128A11B3
:1002D800831203131308080083160313141C7529CB
:1002E800762970290800F000700883120313930020
:0A02F8000800003400340134003423
:08400000FF3FFF3FFF3FFF3FC0
:04400E00D420FF3F7C
:00000001FF
